{
  "contractName": "CreditLimit",
  "abi": [
    {
      "inputs": [],
      "stateMutability": "nonpayable",
      "type": "constructor"
    },
    {
      "inputs": [],
      "name": "getMyCreditLimit",
      "outputs": [
        {
          "internalType": "uint256",
          "name": "",
          "type": "uint256"
        }
      ],
      "stateMutability": "view",
      "type": "function"
    },
    {
      "inputs": [
        {
          "internalType": "uint256",
          "name": "travel",
          "type": "uint256"
        },
        {
          "internalType": "uint256",
          "name": "eat",
          "type": "uint256"
        },
        {
          "internalType": "uint256",
          "name": "stay",
          "type": "uint256"
        }
      ],
      "name": "addMyExpenses",
      "outputs": [],
      "stateMutability": "nonpayable",
      "type": "function"
    },
    {
      "inputs": [],
      "name": "resetMyCreditLimit",
      "outputs": [],
      "stateMutability": "nonpayable",
      "type": "function"
    }
  ],
  "bytecode": "0x608060405234801561001057600080fd5b5061271060008190555061033f806100296000396000f3fe608060405234801561001057600080fd5b50600436106100415760003560e01c8063027313e1146100465780633f743bc914610050578063a83c99b91461006e575b600080fd5b61004e61008a565b005b610058610095565b6040516100659190610130565b60405180910390f35b6100886004803603810190610083919061017c565b61009e565b005b612710600081905550565b60008054905090565b60008183856100ad91906101fe565b6100b791906101fe565b905060005481106100fd576040517f08c379a00000000000000000000000000000000000000000000000000000000081526004016100f4906102b5565b60405180910390fd5b8060005461010b91906102d5565b60008190555050505050565b6000819050919050565b61012a81610117565b82525050565b60006020820190506101456000830184610121565b92915050565b600080fd5b61015981610117565b811461016457600080fd5b50565b60008135905061017681610150565b92915050565b6000806000606084860312156101955761019461014b565b5b60006101a386828701610167565b93505060206101b486828701610167565b92505060406101c586828701610167565b9150509250925092565b7f4e487b7100000000000000000000000000000000000000000000000000000000600052601160045260246000fd5b600061020982610117565b915061021483610117565b925082820190508082111561022c5761022b6101cf565b5b92915050565b600082825260208201905092915050565b7f4372656469742073636f726520746f6f206c6f7720746f2070726f636573732060008201527f74686973207472616e73636174696f6e00000000000000000000000000000000602082015250565b600061029f603083610232565b91506102aa82610243565b604082019050919050565b600060208201905081810360008301526102ce81610292565b9050919050565b60006102e082610117565b91506102eb83610117565b9250828203905081811115610303576103026101cf565b5b9291505056fea264697066735822122044d8d396ab9dc513d0864136870737d73b5b5a134c814dc9eaa5c90523d9cec864736f6c63430008110033",
  "immutableReferences": {},
  "source": "// SPDX-License-Identifier: MIT\r\npragma solidity ^0.8.17;\r\n\r\ncontract CreditLimit {\r\n    //2019130015 - Shubham Goel\r\n    uint max_cred_limit;\r\n    constructor() {\r\n        max_cred_limit = 10000;\r\n    }\r\n    function getMyCreditLimit() public view returns(uint){\r\n        return max_cred_limit;\r\n    }\r\n    function addMyExpenses(uint travel, uint eat, uint stay) public {\r\n        uint total_expenses = travel + eat + stay ;\r\n        require (total_expenses < max_cred_limit, \"Credit score too low to process this transcation\");\r\n        max_cred_limit = max_cred_limit - total_expenses;\r\n    }\r\n    function resetMyCreditLimit() public {\r\n        max_cred_limit = 10000;\r\n    }\r\n}",
  "sourcePath": "C:\\Users\\shubh\\Desktop\\blockchain\\Blockchain_lab\\1_nov_2022\\truffle\\contracts\\first_one.sol",
  "compiler": {
    "name": "solc",
    "version": "0.8.17+commit.8df45f5f.Emscripten.clang"
  },
  "schemaVersion": "3.4.10",
  "updatedAt": "2022-11-01T09:51:09.421Z",
  "devdoc": {
    "kind": "dev",
    "methods": {},
    "version": 1
  },
  "userdoc": {
    "kind": "user",
    "methods": {},
    "version": 1
  }
}